:100000000C94A3020C94D4020C94D4020C94D40249
:100010000C94D4020C94D4020C94D4020C94D40208
:100020000C94D4020C94D4020C94D4020C94D402F8
:100030000C94D4020C94D4020C94D4020C94D402E8
:100040000C94D4020C94D4020C94D4020C94D402D8
:100050000C94D4020C941F0A0C94D4020C948508BE
:100060000C94D4020C94F5090C94CB090C94D40292
:100070000C94D4020C94D4020C94D4020C94D402A8
:100080000C94D4020C94D4020C94D4020C94D40298
:100090000C94A1090C9477090C94D4020C94D4020A
:1000A0000C94D4020C94D4020C94D4020C94D40278
:1000B0000C94D4020C94D4020C94D4020C94D40268
:1000C0000C94D4020C94D4020C94D4020C944D09D8
:1000D0000C9423090C94D4020C94F9080C94CF08C6
:1000E0000C94D4020C9460030C94DB040C941D0457
:1000F0000C944D0A0C9473040C94EC030C94FB03C5
:100100000C940F040050524F544F434F4C3A20531D
:10011000657269616C436F6D6D616E64203D203165
:10012000302062797465732C2053657269616C4666
:100130006565646261636B203D20323020627974B2
:10014000657300002D205452513A20636D64466C53
:100150006167733D30783036002D205350443A208B
:10016000636D64466C6167733D3078303400636D55
:1001700064466C6167733A20626974313D6D6F64E7
:10018000652C20626974323D64697361626C655FDD
:1001900062757A7A657200005350442063757276F6
:1001A000653A207E35252C203130252C203135250F
:1001B0002C203230252C203235252C203530252C92
:1001C000203735252C203130302500005452512065
:1001D0007374656572696E67206C696D6974733AD2
:1001E000203330302F3630302F39303020286C69B2
:1001F0006E6561722900535044207374656572699D
:100200006E67206C696D6974733A203230302F3418
:1002100030302F3630302028717561647261746916
:1002200063206375727665290000545251206D6F0A
:100230006465207370656564733A203330302F36FF
:1002400030302F3930302052504D20286C696E6587
:1002500061722900535044206D6F6465207370658E
:100260006564733A203230302F3430302F363030DE
:100270002052504D20287175616472617469632049
:1002800063757276652900002D205374617475734F
:100290002073686F776E2061732052433A4F4B2072
:1002A0006F722052433A4641494C002D204D6F74E5
:1002B0006F72732064697361626C65642069662083
:1002C000524320646973636F6E6E65637465640086
:1002D0002D20524320636865636B3A20416C6C208B
:1002E0006368616E6E656C73206D757374206265F2
:1002F00020313030302D32303030005341464554BB
:10030000593A00002D204348362028537742293A95
:10031000205370656564206C6576656C20284C4FB1
:10032000572F4D49442F4849474829002D2043481D
:10033000352028537741293A205350442F545251A5
:10034000206D6F6465002D204348323A2054687256
:100350006F74746C652028666F72776172642F62A7
:1003600061636B29002D204348313A205374656541
:1003700072696E6720286C6566742F72696768748D
:100380002900434F4E54524F4C3A000052414D50B9
:10039000494E473A202B2F2D31302052504D20709E
:1003A00065722032306D7300444541445A4F4E45CA
:1003B0003A203530003D3D3D204D494E494D414CA0
:1003C000204649524D574152452056313820285336
:1003D000414645205354415254202B205243204340
:1003E0004845434B29203D3D3D00207C205245415E
:1003F000523A204E4F20444154410053504400543F
:1004000052510043204D6F64653A200056205465D8
:100410006D703A200020566F6C743A20002F002037
:100420007C20524541522052504D204C2F523A20B0
:1004300000207C2046524F4E543A204E4F204441DB
:10044000544100535044005452510043204D6F64B6
:10045000653A2000562054656D703A200020566F92
:100460006C743A20002F00207C2046524F4E5420BE
:1004700052504D204C2F523A2000207C2052656172
:10048000725F636D643A2000207C2046726F6E7448
:100490005F636D643A200052504D29207C20636DCB
:1004A00064466C6167733D307800202800484947F6
:1004B00048004D4944004C4F57005350440054529B
:1004C0005100207C2073706565643D004641494CB5
:1004D000004F4B00207C206D6F64653D00207C2028
:1004E00061637475616C3D00207C20746172676586
:1004F000743D00207C207468726F74746C653D00DC
:10050000207C2073746565723D0052433A0052436B
:100510003A4641494C207C204D6F746F72732073B2
:10052000746F70706564202D2077616974696E67DF
:1005300020666F7220524320636F6E6E656374692C
:100540006F6E00004D0A11241FBECFEFD1E2DEBF57
:10055000CDBF00E00CBF12E0A0E0B2E0E8E8F6E2B8
:1005600000E00BBF02C007900D92AE32B107D9F781
:1005700025E0AEE2B2E001C01D92AA39B207E1F770
:1005800012E0C3EAD2E000E006C021970109802F03
:10059000FE010E943A13C23AD10780E00807A9F78A
:1005A0000E94F20A0C9442130C940000FC01A089F2
:1005B000B18982E08C93A485B5851C92A685B78508
:1005C00080E18C93108EA489B58986E08C93A289F2
:1005D000B3898C9180618C93A289B3898C91886056
:1005E0008C93A289B3898C9180688C930288F3895B
:1005F000E02D80818F7D808308953FB7F8948091AE
:10060000980290919902A0919A02B0919B0226B50E
:10061000A89B05C02F3F19F00196A11DB11D3FBF3A
:10062000BA2FA92F982F8827BC01CD01620F711D09
:10063000811D911D42E0660F771F881F991F4A9503
:10064000D1F708958F929F92AF92BF92CF92DF928F
:10065000EF92FF924B015C010E94FD026B017C0155
:100660000E94FD026C197D098E099F09683E734046
:1006700081059105A8F321E0821A9108A108B1082B
:1006800088EEC80E83E0D81EE11CF11C8114910491
:10069000A104B10429F7FF90EF90DF90CF90BF90B5
:1006A000AF909F908F9008952FB7F8946091940227
:1006B0007091950280919602909197022FBF0895B4
:1006C000AF92BF92CF92DF92EF92FF920F931F9360
:1006D000CF93DF936C017B018B01040F151FEB019E
:1006E0005E01AE18BF08C017D10759F06991D60155
:1006F000ED91FC910190F081E02DC6011995892BB7
:1007000079F7C501DF91CF911F910F91FF90EF9085
:10071000DF90CF90BF90AF900895CF93DF9300D03C
:1007200000D000D01F92CDB7DEB7EDECFBEAFA8324
:10073000E983FB01E93E63E0F60714F0E8EEF3E03D
:10074000E8316CEFF60714F4E8E1FCEFFC83EB838F
:10075000BA01693E43E0740714F068EE73E0683153
:100760004CEF740714F468E17CEF7E836D83388767
:100770002F834DEC24274BEA3427262737272E27B3
:100780003F273A8729874AE050E0BE016F5F7F4FDD
:100790000E9460032A960FB6F894DEBF0FBECDBF4D
:1007A000DF91CF910895FC01A089B1898C91A68930
:1007B000B78982FD0FC09C91818D8F5F8F73228DD1
:1007C000821749F0A18DAE0FBF2FB11D5D969C938E
:1007D000818F08958C910895FC01538D448D252FB0
:1007E00030E0842F90E0821B930B541710F0CF96CB
:1007F000089501970895FC01918D828D981761F0FD
:10080000A28DAE0FBF2FB11D5D968C91928D9F5F13
:100810009F73928F90E008958FEF9FEF0895FC01F2
:10082000918D828D981731F0828DE80FF11D858DA5
:1008300090E008958FEF9FEF0895FC01918D228D38
:10084000892F90E0805C9F4F821B91098F739927BD
:1008500008958CE992E00E941D0421E0892B09F49F
:1008600020E0822F089589E393E00E941D0421E097
:10087000892B09F420E0822F089586ED93E00E94F1
:100880001D0421E0892B09F420E0822F089583E7DD
:1008900094E00E941D0421E0892B09F420E0822FBE
:1008A0000895FC01A48DA80FB92FB11DA35ABF4F05
:1008B0002C91848D90E001968F739927848FA6895F
:1008C000B7892C93A089B1898C91837080648C93B3
:1008D000938D848D981306C00288F389E02D808162
:1008E0008F7D80830895EF92FF920F931F93CF9394
:1008F000DF93EC0181E0888F9B8D8C8D98131AC05B
:10090000E889F989808185FF15C09FB7F894EE8941
:10091000FF896083E889F98980818370806480839E
:100920009FBF81E090E0DF91CF911F910F91FF90E9
:10093000EF900895F62E0B8D10E00F5F1F4F0F7391
:100940001127E02E8C8D8E110CC00FB607FCFACF4C
:10095000E889F989808185FFF5CFCE010E94510495
:10096000F1CFEB8DEC0FFD2FF11DE35AFF4FF0821D
:100970009FB7F8940B8FEA89FB8980818062CFCF83
:100980000F931F93CF93DF938C01D0E0C0E0F80169
:10099000EC0FFD1F6491662341F083E794E00E9411
:1009A0007304892B11F02196F2CFCE01DF91CF9104
:1009B0001F910F910895CF93DF93EC01888D8823C9
:1009C000B9F0AA89BB89E889F9898C9185FD03C0B2
:1009D000808186FD0DC00FB607FCF7CF8C9185FF97
:1009E000F2CF808185FFEDCFCE010E945104E9CF87
:1009F000DF91CF91089580E090E0892B29F00E944B
:100A0000470481110E94000080E090E0892B29F0CA
:100A10000E943D0481110E94000080E090E0892B3B
:100A200029F00E94330481110E94000080E090E0D0
:100A3000892B29F00E94290481110C94000008954B
:100A4000DC01ED91FC910190F081E02D19942F9241
:100A50003F924F925F926F927F928F929F92AF924E
:100A6000BF92CF92DF92EF92FF920F931F93CF939B
:100A7000DF93EC01FC01E857FF4F808191810097E3
:100A800011F00E9427058E01085B1F4F3E012AE4EA
:100A9000620E711C1E0137E8230E311CEBE84E2E4E
:100AA000552453948C819D81DC01ED91FC9100844F
:100AB000F185E02D1995181619060CF0B6C10E94A3
:100AC0005403CE80DF80E884F9849B01AC012C19AB
:100AD0003D094E095F0969017A0133E0C316D1046B
:100AE000E104F10408F01B826E837F838887998775
:100AF0008C819D81DC01ED91FC910284F385E02DD8
:100B00001995282F3B81313009F447C098F13230D4
:100B100009F459C0333031F6D3012C91982F88272E
:100B2000820F911DF801208131812817390701F5C5
:100B30002A85F22FFF709F2E203409F048C0DE0175
:100B400021E0E22FE695F0E07696EE0FFF1FEC0F26
:100B5000FD1F1C969C911C971B968C911B97918353
:100B600080832E5F12962D3161F78A818F5F8A8391
:100B7000B4E027C03CEF380F3D3160F41AA6235093
:100B80002BA7992780959095F80191838083F1E0B8
:100B9000FB8388CF24E02B8385CFEAA541E04E0F6D
:100BA0004AA7EC0FFD2FF11D8287D8012D913C91B2
:100BB0001197281B31092D933C938BA5B2E0481364
:100BC00071CFBB836FCFF3018083F3E0E1CFD1011D
:100BD0008C918F1768F2FF2359F28BA5813041F673
:100BE0008C819D81EF2EF12C5701B1E0AB1AB10839
:100BF000F2013197F1F7207F203999F1203A09F479
:100C000071C0203809F0B4CF28812F5F288364E0B9
:100C100070E00E942005B70160587F4F8C819D8154
:100C20000E942005E4E8EE0EF11CE094F094D80157
:100C3000ED92FC928C819D81DC01ED91FC91019003
:100C4000F081E02DD8016C9119958C819D81F8017E
:100C50006181DC01ED91FC910190F081E02D19950D
:100C600087CF66E070E00E942005B70160577F4F94
:100C70008C819D810E9420058C819D81B6E0BA9D6A
:100C80006001BB9DD00C1124CC0EDD1E5601EBE49F
:100C9000AE0EB11CDC01ED91FC910190F081E02DD4
:100CA000D5016C9119958C819D81BCE4CB0ED11C32
:100CB000DC01ED91FC910190F081E02DD6016C9169
:100CC0001995B6E9EB0EF11CF5018081E80EF11CD7
:100CD000D6018C91E80EF11CE094F094F801F182B9
:100CE000E082A8CF29812F5F2983F6E0FA9D700169
:100CF000FB9DF00C1124EC0EFD1E67012CE4C20ECE
:100D0000D11CD6012C9144E0B42EB20EDC01ED9141
:100D1000FC910190F081E02D6B2D19958B2D90E0C9
:100D200080959095F801918380838C819D81F0EA74
:100D30009F0EDC01ED91FC910190F081E02D692D79
:100D40001995F80180819181891991099183808396
:100D50008C819D81FDE4EF0EF11CD701BC90DC017C
:100D6000ED91FC910190F081E02D6B2D1995F8012A
:100D7000808191818B199109918380838C819D81E0
:100D8000D7018D909D90AD90BC90892C9A2CAB2C66
:100D9000BB24A7FCBA94DC01ED91FC910190F08199
:100DA000E02D682D1995F8018081918188199109AC
:100DB00091838083D6018C91843009F03BCF8C8164
:100DC0009D81F70180809180A280B3804501BB2482
:100DD00097FCB094AB2CDC01ED91FC910190F0817B
:100DE000E02D682D1995F80180819181881991096C
:100DF000918380838C819D81D701CD90DD90ED9092
:100E0000FC90CF2CDD24EE24FF24DC01ED91FC913D
:100E10000190F081E02D6C2D1995F8018081918170
:100E20008C199D099183808305CFDF91CF911F910C
:100E30000F91FF90EF90DF90CF90BF90AF909F9079
:100E40008F907F906F905F904F903F902F9008957C
:100E5000FC0101900020E9F73197AF01481B590BC5
:100E6000BC0183E794E00C946003CF93DF930E946E
:100E7000C004EC018EE192E00E9428078C0F9D1FB8
:100E8000DF91CF9108958F929F92AF92BF920F936F
:100E90001F93CF93DF93CDB7DEB7A1970FB6F8942A
:100EA000DEBF0FBECDBF19A2423008F44AE08E016A
:100EB0000F5D1F4F842E912CB12CA12CA501940104
:100EC0000E94B610E62FB901CA01EA30F4F4E05DE1
:100ED000D801EE938D01232B242B252B79F790E05D
:100EE00080E0109719F0CD010E942807A1960FB657
:100EF000F894DEBF0FBECDBFDF91CF911F910F9150
:100F0000BF90AF909F908F900895E95CE1CF4F9292
:100F10005F926F927F928F929F92AF92BF92CF9289
:100F2000DF92EF92FF926B017C01AC019B010E946A
:100F30002513882381F081E292E0FF90EF90DF900B
:100F4000CF90BF90AF909F908F907F906F905F9069
:100F50004F900C94280746015701E894B7F82FEFFB
:100F60003FEF4FE75FE7C501B4010E9425138111F0
:100F70000DC02FEF3FEF4FE75FE7C501B4010E94BF
:100F8000541118161CF485E292E0D7CF2FEF3FEFF3
:100F90004FE75FE4C701B6010E94B31218161CF4B4
:100FA00089E292E0CACF2FEF3FEF4FE75FECC70136
:100FB000B6010E94541187FDF3CF20E030E0A90173
:100FC000C701B6010E945411B12CA12C87FF0AC0A1
:100FD0006DE283E794E00E9473045C01F7FAF094F9
:100FE000F7F8F0942AE037ED43EA5BE3C701B60176
:100FF0000E94E8102B013C010E94D2116B017C0180
:101000000E9401129B01AC01C301B2010E94E710D2
:101010002B013C014AE0C701B6010E9443077C0155
:10102000EA0CFB1C6EE283E794E00E947304E80E76
:10103000F91E20E030E040E251E4C301B2010E9419
:10104000B8122B013C010E94D2114B01B12CA12CF2
:101050004AE0C501B4010E944307E80EF91EC5012C
:10106000B4010E9401129B01AC01C301B2010E94B4
:10107000E71020E030E040E251E40E94B8120E9404
:10108000D21190E080E04AE00E9443078E0D9F1D40
:10109000FF90EF90DF90CF90BF90AF909F908F9098
:1010A0007F906F905F904F900895CF92DF92EF9274
:1010B000FF92CF93DF936C01990FEE08FF08F7FEC4
:1010C00019C06DE283E794E00E947304EC01662787
:1010D0007727CB016C197D098E099F094AE00E9490
:1010E00043078C0F9D1FDF91CF91FF90EF90DF9012
:1010F000CF9008954AE0C701B601DF91CF91FF90EC
:10110000EF90DF90CF900C9443071F920F920FB691
:101110000F9211242F933F938F939F93AF93BF937D
:101120008091940290919502A0919602B0919702BD
:101130003091930223E0230F2D3758F50196A11D1E
:10114000B11D209393028093940290939502A093F3
:101150009602B09397028091980290919902A09183
:101160009A02B0919B020196A11DB11D8093980235
:1011700090939902A0939A02B0939B02BF91AF9172
:101180009F918F913F912F910F900FBE0F901F90C5
:10119000189526E8230F0296A11DB11DD2CF1F92EC
:1011A0000F920FB60F9211240BB60F922F933F930D
:1011B0004F935F936F937F938F939F93AF93BF935F
:1011C000EF93FF938CE992E00E945104FF91EF911D
:1011D000BF91AF919F918F917F916F915F914F914F
:1011E0003F912F910F900BBE0F900FBE0F901F904D
:1011F00018951F920F920FB60F9211240BB60F92F3
:101200002F933F934F935F936F937F938F939F930E
:10121000AF93BF93EF93FF938CE992E00E94D303C7
:10122000FF91EF91BF91AF919F918F917F916F91BE
:101230005F914F913F912F910F900BBE0F900FBE7A
:101240000F901F9018951F920F920FB60F921124B6
:101250000BB60F922F933F934F935F936F937F93B0
:101260008F939F93AF93BF93EF93FF9389E393E0A3
:101270000E945104FF91EF91BF91AF919F918F9187
:101280007F916F915F914F913F912F910F900BBE86
:101290000F900FBE0F901F9018951F920F920FB6D0
:1012A0000F9211240BB60F922F933F934F935F939E
:1012B0006F937F938F939F93AF93BF93EF93FF931E
:1012C00089E393E00E94D303FF91EF91BF91AF9127
:1012D0009F918F917F916F915F914F913F912F914E
:1012E0000F900BBE0F900FBE0F901F9018951F927E
:1012F0000F920FB60F9211240BB60F922F933F93BC
:101300004F935F936F937F938F939F93AF93BF930D
:10131000EF93FF9386ED93E00E945104FF91EF91CC
:10132000BF91AF919F918F917F916F915F914F91FD
:101330003F912F910F900BBE0F900FBE0F901F90FB
:1013400018951F920F920FB60F9211240BB60F92A1
:101350002F933F934F935F936F937F938F939F93BD
:10136000AF93BF93EF93FF9386ED93E00E94D30377
:10137000FF91EF91BF91AF919F918F917F916F916D
:101380005F914F913F912F910F900BBE0F900FBE29
:101390000F901F9018951F920F920FB60F92112465
:1013A0000BB60F922F933F934F935F936F937F935F
:1013B0008F939F93AF93BF93EF93FF9383E794E053
:1013C0000E945104FF91EF91BF91AF919F918F9136
:1013D0007F916F915F914F913F912F910F900BBE35
:1013E0000F900FBE0F901F9018951F920F920FB67F
:1013F0000F9211240BB60F922F933F934F935F934D
:101400006F937F938F939F93AF93BF93EF93FF93CC
:1014100083E794E00E94D303FF91EF91BF91AF91D6
:101420009F918F917F916F915F914F913F912F91FC
:101430000F900BBE0F900FBE0F901F9018951F922C
:101440000F920FB60F9211240BB60F922F933F936A
:101450004F935F936F937F938F939F93AF93BF93BC
:10146000EF93FF9380912E0290912F02009711F03D
:101470000E942705FF91EF91BF91AF919F918F91AE
:101480007F916F915F914F913F912F910F900BBE84
:101490000F900FBE0F901F901895ECE9F2E01382A9
:1014A000128248EE53E060E070E044835583668327
:1014B000778380E192E09183808325E331E0358773
:1014C000248724E331E03787268720E331E0318B1E
:1014D000208B21E331E0338B228B22E331E0358B0B
:1014E000248B26E331E0378B268B118E128E138EE0
:1014F000148EE9E3F3E013821282448355836683FA
:1015000077839183808325ED30E03587248724ED30
:1015100030E03787268720ED30E0318B208B21EDBE
:1015200030E0338B228B22ED30E0358B248B26ED9F
:1015300030E0378B268B118E128E138E148EE6EDD3
:10154000F3E0138212824483558366837783918309
:1015500080832DEC30E0358724872CEC30E0378712
:10156000268728EC30E0318B208B29EC30E0338B60
:10157000228B2AEC30E0358B248B2EEC30E0378B3D
:10158000268B118E128E138E148EE3E7F4E01382F5
:10159000128244835583668377839183808385ECAD
:1015A00090E09587848784EC90E09787868780EC2D
:1015B00090E0918B808B81EC90E0938B828B82EC1E
:1015C00090E0958B848B86EC90E0978B868B118EC8
:1015D000128E138E148E1092970510929905109208
:1015E00098050895CF93DF9300D000D0CDB7DEB734
:1015F000789484B5826084BD84B5816084BD85B5EE
:10160000826085BD85B5816085BD80916E008160F9
:1016100080936E001092810080918100826080939F
:1016200081008091810081608093810080918000A1
:101630008160809380008091B10084608093B100CC
:101640008091B00081608093B000809191008260B1
:1016500080939100809191008160809391008091AE
:1016600090008160809390008091A10082608093BF
:10167000A1008091A10081608093A1008091A000D1
:1016800081608093A000809121018260809321017C
:1016900080912101816080932101809120018160EE
:1016A0008093200180917A00846080937A008091F9
:1016B0007A00826080937A0080917A0081608093C2
:1016C0007A0080917A00806880937A001092C1003D
:1016D00083E794E00E94D60286ED93E00E94D60252
:1016E00089E393E00E94D6028CE992E00E94D60240
:1016F0008CE992E00E94D6028CE992E09093150565
:101700008093140584E0809313050E945403609332
:10171000160570931705809318059093190510927C
:101720003A0510923B0510925905109258051092F7
:101730005A0580912E0290912F02909399058093E3
:101740009805892B39F48FEA87BD80916E008260FD
:1017500080936E0080E195E090932F0280932E029B
:1017600064EF71E080E090E00E94220385EB93E05B
:101770000E94350788EA93E00E9435078CE893E0E1
:101780000E9435078BE893E00E94350782E893E0DA
:101790000E94350785E693E00E94350786E493E0D2
:1017A0000E9435078CE293E00E94350784E093E0C5
:1017B0000E94350783E093E00E9435078BEF92E0AB
:1017C0000E94350780ED92E00E9435078BEA92E097
:1017D0000E94350788E892E00E94350787E892E08A
:1017E0000E94350784E592E00E9435078AE292E084
:1017F0000E94350789E292E00E94350786EF91E06A
:101800000E9435078CEC91E00E9435078BEC91E04B
:101810000E94350788E991E00E94350787E991E049
:101820000E9435078EE691E00E94350789E591E038
:101830000E94350784E491E00E94350783E491E03B
:101840000E94350785E091E00E94350784E091E031
:101850000E94350700913C0510913D0520903E0502
:1018600030903F05409144055091450580914605D3
:10187000909147059801285E3340293E334008F097
:1018800062C09101285E3340293E334008F05BC0BE
:101890009A01285E3340293E334008F054C09C0131
:1018A000285E3340293E334008F04DC021E02093AC
:1018B000920220919202211149C030E020E050E0D4
:1018C00040E070E060E086ED93E00E948D0330E040
:1018D00020E050E040E070E060E089E393E00E94A7
:1018E0008D03109291021092900210928F0210922A
:1018F0008E020E94540300918A0210918B02209163
:101900008C0230918D02601B710B820B930B643F34
:1019100071408105910570F00E94540360938A0222
:1019200070938B0280938C0290938D028EE095E0F1
:101930000E94350764E170E080E090E00E9422039D
:101940000E94FB0487CF10929202B3CF0C5D15402A
:10195000FCED2F1AF5E03F0A98012F5C3F4F23362C
:10196000310510F410E000E04D3D55400CF07FC310
:10197000843125E092070CF0C6C3F12CEF2DF0E086
:10198000EE0FFF1FEA5FFD4FC080D180E12CC10147
:10199000C1968336910508F005C110928F0210920E
:1019A0008E0220918E0230918F0280919002909150
:1019B0009102A901481B590B4B3051050CF46CC125
:1019C0000A9690939102809390028E2C912C880C11
:1019D000991C689482F820919002309191023E8384
:1019E0002D838F2D90E0880F991F31E0E31256C3AD
:1019F000ED81FE81F7FF03C03396FE83ED832D81D9
:101A00003E8135952795359527953E832D832B3F30
:101A1000310524F0EAEFF0E0FE83ED832D813E8175
:101A200026303F4F24F4E6E0FFEFFE83ED83805045
:101A30009E4FFC01A080B180442455244A185B08C5
:101A4000052C000C66087708012E000C220B330BC6
:101A5000A90198012C503E4F4F4F5F4FB5010B2C01
:101A6000000C880B990B64197509860997090E9467
:101A70002A1328EE33E040E050E00E948C10420E22
:101A8000531E641E751E002711270A191B094016D4
:101A900051062CF08201A414B5040CF485019401C4
:101AA0004D815E81B80186ED93E00E948D03940123
:101AB0004D815E81B80189E393E00E948D0386ED3C
:101AC00093E00E941D04892B09F400C186ED93E088
:101AD0000E94FB0390915B028A83198229813A81DB
:101AE000292B2D3C3B4A09F0E1C09093470280939B
:101AF000480222E02093460290914602943109F078
:101B00004EC020914702309148022D3C3B4A09F0DB
:101B100044C020915502309156026DEC26276BEAA5
:101B2000362740915702509158024227532720915F
:101B3000490230914A024227532720914B023091AB
:101B40004C022427352740914D0250914E02242704
:101B5000352740914F025091500242275327209140
:101B60005102309152024227532720915302309163
:101B70005402242735274091590250915A022417C4
:101B8000350759F4E7E4F2E0A1E7B2E001900D92E5
:101B90009A95E1F791E09093850210924602809326
:101BA0005B028DCF910137FE04C022273327221913
:101BB000330946010D2C000CAA08BB08E1103EC0F9
:101BC000B90162537109072E000C880B990B0E9412
:101BD000031220E030E041EE53E40E9459119B01D2
:101BE000AC010E94B8122B013C01C501B4010E9456
:101BF00003129B01AC01C301B2010E94B8120E9402
:101C0000CB1130E020E077FD07C03C2D2D2D6C1569
:101C10007D0514F4362F272F30938E0220938F02E8
:101C200037FEBFCE80918E0290918F029195819563
:101C3000910990938F0280938E02B3CE032E000CF5
:101C4000440B550B2253310941095109C501B40117
:101C500062537109810991090E942A1322EC31E033
:101C600040E050E00E948C1049015A0162E3860E68
:101C7000911CA11CB11CC40172E360E0C2973CF04E
:101C80007C2D6D2D8C149D0414F4782D692D70938A
:101C90008E0260938F02C4CF463F5F4F14F40A97C1
:101CA00090CE30939102209390028FCE9091460275
:101CB0002EEF290F223108F01FCFE92FF0E0E95B6A
:101CC000FD4F80839F5F9093460216CF89E393E098
:101CD0000E941D04892B09F47CC089E393E00E94D3
:101CE000FB03909145028C831B822B813C81292B25
:101CF0002D3C3B4A09F05DC0909331028093320243
:101D0000F2E0F093300290913002943109F04EC02D
:101D100020913102309132022D3C3B4A09F044C0FF
:101D200020913F02309140026DEC26276BEA362766
:101D300040914102509142024227532720913302A1
:101D400030913402422753272091350230913602D8
:101D50002427352740913702509138022427352710
:101D60004091390250913A024227532720913B0279
:101D700030913C024227532720913D0230913E0290
:101D800024273527409143025091440224173507F8
:101D900059F4E1E3F2E0ACE5B2E001900D929A95DE
:101DA000E1F791E090937002109230028093450227
:101DB0008DCF909130022EEF290F223108F0A3CF62
:101DC000E92FF0E0EF5CFD4F80839F5F909330023E
:101DD0009ACF0E94540340908602509087026090F0
:101DE0008802709089026419750986099709643F11
:101DF00071408105910508F49DCD0E9454036093C4
:101E000086027093870280938802909389028AE009
:101E100095E00E94C00480919202882309F418C1C1
:101E200081ED94E00E94C00480E095E00E94C0042F
:101E3000C8010E94550883EF94E00E94C004C101CC
:101E40000E94550888EE94E00E94C00480918E02A2
:101E500090918F020E9455088DED94E00E94C0047D
:101E600080919002909191020E94550884ED94E037
:101E70000E94C0048EEB94E0E11002C08AEB94E073
:101E80000E94C00482EC94E00E94C00486EB94E0BF
:101E9000FF2039F0F1E082EB94E0FF1611F08DEABB
:101EA00094E00E94C0048AEA94E00E94C004C60143
:101EB0000E94550887E994E00E94C004B401990C7F
:101EC000880B990B40E10E9443078091850288238B
:101ED00051F088E894E00E94C004809175029091CE
:101EE00076020E94550880917002882351F08AE79B
:101EF00094E00E94C00480916002909161020E946F
:101F0000550880918502882309F4A8C087E694E0EB
:101F10000E94C0048091790290917A020E94550833
:101F200085E694E00E94C004809177029091780247
:101F30000E9455088DE594E00E94C00460917B02E8
:101F400070917C02072E000C880B990B0E940312E3
:101F500020E030E048EC52E40E9459110E948707CB
:101F600084E594E00E94C00460917D0270917E023D
:101F7000072E000C880B990B0E94031220E030E022
:101F800040E251E40E9459110E9487078BE494E0DB
:101F90000E94C0048091810281FF5DC087E494E0CB
:101FA0000E94C00480917002882309F45DC08FE113
:101FB00094E00E94C00480916402909165020E94A6
:101FC00055088DE194E00E94C004809162029091D6
:101FD00063020E94550885E194E00E94C00460916C
:101FE000660270916702072E000C880B990B0E9405
:101FF000031220E030E048EC52E40E9459110E94A4
:1020000087078CE094E00E94C004609168027091A0
:102010006902072E000C880B990B0E94031220E026
:1020200030E040E251E40E9459110E94870783E0AA
:1020300094E00E94C00480916C0281FF12C08FEF77
:1020400093E00E94C0048EE192E00E94280772CCC7
:102050008CEC94E0E7CE83E494E0A2CF81E394E0BB
:102060009FCF8BEF93E0EDCF8AEE93E0EACFF12C98
:10207000843135E093073CF0FF24F394843A964092
:1020800014F0E2E0FE2EEF2DF0E0EE0FFF1FE05027
:10209000FE4FC080D180EE24E39479CC8A5F9D4FBF
:1020A000FC01A080B180B80117FF04C06627772724
:1020B000601B710B072E000C880B990B0E940312FA
:1020C00020E030E04AEF53E40E9459119B01AC013B
:1020D0000E94B8122B013C01B5010B2C000C880B9F
:1020E000990B0E9403129B01AC01C301B2010E9433
:1020F000B8120E94CB112B0117FFC5CC44245524E4
:10210000461A570AC0CCFF24F394843A96400CF444
:1021100035CCB2E0FB2E32CC052E97FB1EF400949A
:102120000E94A31057FD07D00E94B61007FC03D0F1
:102130004EF40C94A31050954095309521953F4F47
:102140004F4F5F4F089590958095709561957F4FA3
:102150008F4F9F4F08950E94D810A59F900DB49F58
:10216000900DA49F800D911D11240895A1E21A2EB7
:10217000AA1BBB1BFD010DC0AA1FBB1FEE1FFF1F2B
:10218000A217B307E407F50720F0A21BB30BE40B7B
:10219000F50B661F771F881F991F1A9469F76095C2
:1021A0007095809590959B01AC01BD01CF0108957C
:1021B000A29FB001B39FC001A39F700D811D112488
:1021C000911DB29F700D811D1124911D08955058CD
:1021D000BB27AA270E94FF100C9479120E946B1251
:1021E00038F00E94721220F039F49F3F19F426F45F
:1021F0000C9468120EF4E095E7FB0C946212E92F40
:102200000E948A1258F3BA1762077307840795076A
:1022100020F079F4A6F50C94AC120EF4E0950B2E98
:10222000BA2FA02D0B01B90190010C01CA01A00128
:102230001124FF27591B99F0593F50F4503E68F183
:102240001A16F040A22F232F342F4427585FF3CFC4
:10225000469537952795A795F0405395C9F77EF495
:102260001F16BA0B620B730B840BBAF09150A1F0DE
:10227000FF0FBB1F661F771F881FC2F70EC0BA0F64
:10228000621F731F841F48F4879577956795B795EC
:10229000F7959E3F08F0B0CF9395880F08F09927E7
:1022A000EE0F9795879508950E943E1208F481E0FD
:1022B00008950E946D110C9479120E94721258F0C8
:1022C0000E946B1240F029F45F3F29F00C946212D7
:1022D00051110C94AD120C9468120E948A1268F38A
:1022E0009923B1F3552391F3951B550BBB27AA27CF
:1022F00062177307840738F09F5F5F4F220F331F09
:10230000441FAA1FA9F335D00E2E3AF0E0E832D0D0
:1023100091505040E695001CCAF72BD0FE2F29D0D3
:10232000660F771F881FBB1F261737074807AB07A5
:10233000B0E809F0BB0B802DBF01FF2793585F4F1A
:102340003AF09E3F510578F00C9462120C94AD1255
:102350005F3FE4F3983ED4F3869577956795B795FC
:10236000F7959F5FC9F7880F911D9695879597F907
:102370000895E1E0660F771F881FBB1F6217730780
:102380008407BA0720F0621B730B840BBA0BEE1F95
:1023900088F7E09508950E94D2116894B1110C94C9
:1023A000AD1208950E94921288F09F5798F0B92FAD
:1023B0009927B751B0F0E1F0660F771F881F991F7A
:1023C0001AF0BA95C9F714C0B13091F00E94AC125E
:1023D000B1E008950C94AC12672F782F8827B85F6E
:1023E00039F0B93FCCF3869577956795B395D9F7D2
:1023F0003EF490958095709561957F4F8F4F9F4FDC
:102400000895E89409C097FB3EF4909580957095E7
:1024100061957F4F8F4F9F4F9923A9F0F92F96E930
:10242000BB279395F695879577956795B795F111A5
:10243000F8CFFAF4BB0F11F460FF1BC06F5F7F4F42
:102440008F4F9F4F16C0882311F096E911C0772354
:1024500021F09EE8872F762F05C0662371F096E85D
:10246000862F70E060E02AF09A95660F771F881F2C
:10247000DAF7880F9695879597F90895990F0008D0
:10248000550FAA0BE0E8FEEF16161706E807F90746
:10249000C0F012161306E407F50798F0621B730BE1
:1024A000840B950B39F40A2661F0232B242B252B62
:1024B00021F408950A2609F4A140A6958FEF811D05
:1024C000811D089597F99F6780E870E060E00895A6
:1024D0009FEF80EC089500240A941616170618063C
:1024E0000906089500240A94121613061406050618
:1024F0000895092E0394000C11F4882352F0BB0FA9
:1025000040F4BF2B11F460FF04C06F5F7F4F8F4F0B
:102510009F4F089557FD9058440F551F59F05F3F46
:1025200071F04795880F97FB991F61F09F3F79F0F5
:1025300087950895121613061406551FF2CF469577
:10254000F1DF08C0161617061806991FF1CF8695F9
:102550007105610508940895E894BB2766277727DD
:10256000CB0197F908950E943E1208F48FEF089569
:102570000E94CB120C9479120E946B1238F00E94C8
:10258000721220F0952311F00C9462120C946812D0
:1025900011240C94AD120E948A1270F3959FC1F31E
:1025A000950F50E0551F629FF001729FBB27F00D01
:1025B000B11D639FAA27F00DB11DAA1F649F662756
:1025C000B00DA11D661F829F2227B00DA11D621FA5
:1025D000739FB00DA11D621F839FA00D611D221F5F
:1025E000749F3327A00D611D231F849F600D211D43
:1025F000822F762F6A2F11249F5750409AF0F1F0C6
:1026000088234AF0EE0FFF1FBB1F661F771F881F2E
:1026100091505040A9F79E3F510580F00C946212F2
:102620000C94AD125F3FE4F3983ED4F38695779512
:102630006795B795F795E7959F5FC1F7FE2B880FD4
:10264000911D9695879597F908950E943E12880BE3
:10265000990B0895DB018F939F930E94AB10BF915C
:10266000AF91A29F800D911DA39F900DB29F900DE1
:1026700011240895EE0FFF1F881F8BBF0790F6915E
:08268000E02D1994F894FFCF3E
:102688002C0158028403C800900158020000000081
:1026980073046003EC03DB041D04FB030F040D0A41
:0E26A800006E616E00696E66006F766600005F
:00000001FF
